{
  "contractName": "Market",
  "abi": [
    {
      "constant": true,
      "inputs": [],
      "name": "name",
      "outputs": [
        {
          "name": "",
          "type": "string"
        }
      ],
      "payable": false,
      "stateMutability": "view",
      "type": "function"
    },
    {
      "constant": true,
      "inputs": [],
      "name": "hasClosed",
      "outputs": [
        {
          "name": "",
          "type": "bool"
        }
      ],
      "payable": false,
      "stateMutability": "view",
      "type": "function"
    },
    {
      "constant": true,
      "inputs": [],
      "name": "isOpen",
      "outputs": [
        {
          "name": "",
          "type": "bool"
        }
      ],
      "payable": false,
      "stateMutability": "view",
      "type": "function"
    },
    {
      "constant": true,
      "inputs": [],
      "name": "closingTime",
      "outputs": [
        {
          "name": "",
          "type": "uint256"
        }
      ],
      "payable": false,
      "stateMutability": "view",
      "type": "function"
    },
    {
      "constant": true,
      "inputs": [],
      "name": "minimum",
      "outputs": [
        {
          "name": "",
          "type": "uint256"
        }
      ],
      "payable": false,
      "stateMutability": "view",
      "type": "function"
    },
    {
      "constant": true,
      "inputs": [],
      "name": "totalVolume",
      "outputs": [
        {
          "name": "",
          "type": "uint256"
        }
      ],
      "payable": false,
      "stateMutability": "view",
      "type": "function"
    },
    {
      "constant": false,
      "inputs": [],
      "name": "renounceOwnership",
      "outputs": [],
      "payable": false,
      "stateMutability": "nonpayable",
      "type": "function"
    },
    {
      "constant": true,
      "inputs": [],
      "name": "description",
      "outputs": [
        {
          "name": "",
          "type": "string"
        }
      ],
      "payable": false,
      "stateMutability": "view",
      "type": "function"
    },
    {
      "constant": true,
      "inputs": [],
      "name": "owner",
      "outputs": [
        {
          "name": "",
          "type": "address"
        }
      ],
      "payable": false,
      "stateMutability": "view",
      "type": "function"
    },
    {
      "constant": true,
      "inputs": [],
      "name": "isOwner",
      "outputs": [
        {
          "name": "",
          "type": "bool"
        }
      ],
      "payable": false,
      "stateMutability": "view",
      "type": "function"
    },
    {
      "constant": true,
      "inputs": [
        {
          "name": "",
          "type": "uint256"
        }
      ],
      "name": "positions",
      "outputs": [
        {
          "name": "value",
          "type": "uint256"
        },
        {
          "name": "holder",
          "type": "address"
        },
        {
          "name": "shareVolume",
          "type": "uint256"
        },
        {
          "name": "totalVolume",
          "type": "uint256"
        },
        {
          "name": "positionType",
          "type": "uint8"
        },
        {
          "name": "retrieved",
          "type": "uint256"
        },
        {
          "name": "settlement",
          "type": "uint256"
        }
      ],
      "payable": false,
      "stateMutability": "view",
      "type": "function"
    },
    {
      "constant": true,
      "inputs": [],
      "name": "completed",
      "outputs": [
        {
          "name": "",
          "type": "bool"
        }
      ],
      "payable": false,
      "stateMutability": "view",
      "type": "function"
    },
    {
      "constant": true,
      "inputs": [],
      "name": "openingTime",
      "outputs": [
        {
          "name": "",
          "type": "uint256"
        }
      ],
      "payable": false,
      "stateMutability": "view",
      "type": "function"
    },
    {
      "constant": true,
      "inputs": [],
      "name": "market_type",
      "outputs": [
        {
          "name": "",
          "type": "uint8"
        }
      ],
      "payable": false,
      "stateMutability": "view",
      "type": "function"
    },
    {
      "constant": false,
      "inputs": [
        {
          "name": "newOwner",
          "type": "address"
        }
      ],
      "name": "transferOwnership",
      "outputs": [],
      "payable": false,
      "stateMutability": "nonpayable",
      "type": "function"
    },
    {
      "inputs": [
        {
          "name": "name",
          "type": "string"
        },
        {
          "name": "description",
          "type": "string"
        },
        {
          "name": "openingTime",
          "type": "uint256"
        },
        {
          "name": "closingTime",
          "type": "uint256"
        }
      ],
      "payable": false,
      "stateMutability": "nonpayable",
      "type": "constructor"
    },
    {
      "anonymous": false,
      "inputs": [
        {
          "indexed": true,
          "name": "previousOwner",
          "type": "address"
        },
        {
          "indexed": true,
          "name": "newOwner",
          "type": "address"
        }
      ],
      "name": "OwnershipTransferred",
      "type": "event"
    },
    {
      "constant": false,
      "inputs": [
        {
          "name": "_positionType",
          "type": "uint8"
        }
      ],
      "name": "placePosition",
      "outputs": [],
      "payable": true,
      "stateMutability": "payable",
      "type": "function"
    },
    {
      "constant": false,
      "inputs": [
        {
          "name": "_targetPositionIndex",
          "type": "uint256"
        },
        {
          "name": "_positionIndexes",
          "type": "uint256[]"
        },
        {
          "name": "_value",
          "type": "uint256"
        },
        {
          "name": "_rate",
          "type": "uint8"
        }
      ],
      "name": "retrievePosition",
      "outputs": [],
      "payable": false,
      "stateMutability": "nonpayable",
      "type": "function"
    }
  ],
  "bytecode": "0x608060405234801561001057600080fd5b50604051610cdf380380610cdf8339810180604052608081101561003357600080fd5b81019080805164010000000081111561004b57600080fd5b8201602081018481111561005e57600080fd5b815164010000000081118282018710171561007857600080fd5b5050929190602001805164010000000081111561009457600080fd5b820160208101848111156100a757600080fd5b81516401000000008111828201871017156100c157600080fd5b5050602082015160409092015190935090915081818181116100e257600080fd5b600091825560015560028054600160a060020a031916331790819055604051600160a060020a039190911691907f8be0079c531659141344cd1fd0a4f28419497f9722a3daafe3b4186f6b6457e0908290a3505060006005555050610b938061014c6000396000f3fe60806040526004361061011b576000357c0100000000000000000000000000000000000000000000000000000000900480638da5cb5b116100b2578063b323ff8d11610081578063b323ff8d1461034a578063b7a8807c14610409578063be8d86771461041e578063e9ccf34714610457578063f2fde38b146104775761011b565b80638da5cb5b146102655780638f32d59b1461029657806399fbab88146102ab5780639d9a7fe9146103355761011b565b806352d6804d116100ee57806352d6804d1461020f5780635f81a57c14610224578063715018a6146102395780637284e416146102505761011b565b806306fdde03146101205780631515bc2b146101aa57806347535d7b146101d35780634b6753bc146101e8575b600080fd5b34801561012c57600080fd5b506101356104aa565b6040805160208082528351818301528351919283929083019185019080838360005b8381101561016f578181015183820152602001610157565b50505050905090810190601f16801561019c5780820380516001836020036101000a031916815260200191505b509250505060405180910390f35b3480156101b657600080fd5b506101bf610538565b604080519115158252519081900360200190f35b3480156101df57600080fd5b506101bf610540565b3480156101f457600080fd5b506101fd61055a565b60408051918252519081900360200190f35b34801561021b57600080fd5b506101fd610560565b34801561023057600080fd5b506101fd610566565b34801561024557600080fd5b5061024e61056c565b005b34801561025c57600080fd5b506101356105d6565b34801561027157600080fd5b5061027a610631565b60408051600160a060020a039092168252519081900360200190f35b3480156102a257600080fd5b506101bf610640565b3480156102b757600080fd5b506102d5600480360360208110156102ce57600080fd5b5035610651565b6040518088815260200187600160a060020a0316600160a060020a0316815260200186815260200185815260200184600181111561030f57fe5b60ff16815260200183815260200182815260200197505050505050505060405180910390f35b34801561034157600080fd5b506101bf6106ab565b34801561035657600080fd5b5061024e6004803603608081101561036d57600080fd5b8135919081019060408101602082013564010000000081111561038f57600080fd5b8201836020820111156103a157600080fd5b803590602001918460208302840111640100000000831117156103c357600080fd5b919080806020026020016040519081016040528093929190818152602001838360200280828437600092019190915250929550508235935050506020013560ff166106b4565b34801561041557600080fd5b506101fd610854565b34801561042a57600080fd5b5061043361085a565b6040518082600181111561044357fe5b60ff16815260200191505060405180910390f35b61024e6004803603602081101561046d57600080fd5b503560ff16610863565b34801561048357600080fd5b5061024e6004803603602081101561049a57600080fd5b5035600160a060020a0316610a69565b6003805460408051602060026001851615610100026000190190941693909304601f810184900484028201840190925281815292918301828280156105305780601f1061050557610100808354040283529160200191610530565b820191906000526020600020905b81548152906001019060200180831161051357829003601f168201915b505050505081565b600154421190565b60008054421015801561055557506001544211155b905090565b60015490565b60075481565b60055481565b610574610640565b151561057f57600080fd5b600254604051600091600160a060020a0316907f8be0079c531659141344cd1fd0a4f28419497f9722a3daafe3b4186f6b6457e0908390a36002805473ffffffffffffffffffffffffffffffffffffffff19169055565b6004805460408051602060026001851615610100026000190190941693909304601f810184900484028201840190925281815292918301828280156105305780601f1061050557610100808354040283529160200191610530565b600254600160a060020a031690565b600254600160a060020a0316331490565b600a80548290811061065f57fe5b60009182526020909120600790910201805460018201546002830154600384015460048501546005860154600690960154949650600160a060020a03909316949193909260ff16919087565b60065460ff1681565b6106bc610640565b15156106c757600080fd5b6106cf610540565b15156106da57600080fd5b600a80546000918291879081106106ed57fe5b60009182526020822060079091020191505b85518110156107f7576000600a878381518110151561071a57fe5b602090810290910101518154811061072e57fe5b60009182526020822060079091020180548890038155600580820180548a019055805489900390556004810154909250879160089160ff16600181111561077157fe5b81526020019081526020016000206000828254039250508190555060006107a18660640360ff1688026064610a88565b60068301805482019055600183015460405196820196919250600160a060020a03169082156108fc029083906000818181858888f193505050501580156107ec573d6000803e3d6000fd5b5050506001016106ff565b5060058054859003905580548490038155600681018290556001810154604051600160a060020a039091169083156108fc029084906000818181858888f1935050505015801561084b573d6000803e3d6000fd5b50505050505050565b60005490565b60095460ff1681565b61086b610540565b151561087657600080fd5b34600181101561088557600080fd5b61088d610b2a565b6040805160e081018252838152336020820152908101600860008660018111156108b357fe5b815260200190815260200160002054815260200160055481526020018460018111156108db57fe5b815260006020820181905260409091018190526005805485019055909150829060089085600181111561090a57fe5b8152602080820192909252604090810160009081208054909401909355600a8054600181810180845592909552855160079091027fc65a7bb8d6351c1cf70c95a316cc6a92839c986682d98bc35f958f4883f9d2a88101918255938601517fc65a7bb8d6351c1cf70c95a316cc6a92839c986682d98bc35f958f4883f9d2a985018054600160a060020a0390921673ffffffffffffffffffffffffffffffffffffffff19909216919091179055918501517fc65a7bb8d6351c1cf70c95a316cc6a92839c986682d98bc35f958f4883f9d2aa84015560608501517fc65a7bb8d6351c1cf70c95a316cc6a92839c986682d98bc35f958f4883f9d2ab84015560808501517fc65a7bb8d6351c1cf70c95a316cc6a92839c986682d98bc35f958f4883f9d2ac9093018054919486949260ff1916908381811115610a4857fe5b021790555060a0820151816005015560c08201518160060155505050505050565b610a71610640565b1515610a7c57600080fd5b610a8581610aac565b50565b6000808211610a9657600080fd5b60008284811515610aa357fe5b04949350505050565b600160a060020a0381161515610ac157600080fd5b600254604051600160a060020a038084169216907f8be0079c531659141344cd1fd0a4f28419497f9722a3daafe3b4186f6b6457e090600090a36002805473ffffffffffffffffffffffffffffffffffffffff1916600160a060020a0392909216919091179055565b6040805160e0810182526000808252602082018190529181018290526060810182905290608082019081526020016000815260200160008152509056fea165627a7a72305820db3127a8f2fb53737da37d0acc0ac3a24c7e09ebfdefcba1693225041e1527ab0029",
  "source": "pragma solidity ^0.5.2;\n\nimport \"openzeppelin-solidity/contracts/ownership/Ownable.sol\";\nimport \"openzeppelin-solidity/contracts/math/SafeMath.sol\";\nimport \"./Timed.sol\";\n\n\n\ncontract MarketFactory is Ownable {\n  Market[] public deployedMarkets;\n\n  enum MarketType {\n    BINARY_PREDICTION,\n    HEDGE\n  }\n\n  function createMarket(string memory name, string memory description, uint256 openingTime, uint256 closingTime) onlyOwner public {\n\n    Market newMarket = new Market(name, description, openingTime, closingTime);\n    deployedMarkets.push(newMarket);\n  }\n\n  function getDeployedMarkets() public view returns (Market[] memory) {\n    return deployedMarkets;\n  }\n}\n\ncontract Market is Timed, Ownable {\n\n  enum PositionType { NO, YES }\n\n  struct Position {\n    uint value;\n    address payable holder;\n    uint shareVolume;\n    uint totalVolume;\n    PositionType positionType;\n    uint retrieved;\n    uint settlement;\n  }\n\n  string public name;\n  string public description;\n  uint public totalVolume;\n  bool public completed;\n  uint public minimum;\n  mapping(uint => uint) shareVolumes;\n\n  MarketFactory.MarketType public market_type;\n\n  Position[] public positions;\n\n  constructor (\n    string memory name,\n    string memory description,\n    uint256 openingTime,\n    uint256 closingTime\n  )\n  Timed(openingTime, closingTime)\n  Ownable()\n  public\n  {\n    name = name;\n    description = description;\n    totalVolume = 0;\n  }\n\n  function placePosition(PositionType _positionType) onlyWhileOpen public payable {\n    uint _positionValue = msg.value;\n\n    require(msg.value >= 1);\n\n    Position memory newPosition = Position({\n      value: _positionValue,\n      holder: msg.sender,\n      shareVolume: shareVolumes[uint(_positionType)],\n      totalVolume: totalVolume,\n      positionType: _positionType,\n      retrieved: 0,\n      settlement: 0\n      });\n\n    totalVolume += _positionValue;\n    shareVolumes[uint(_positionType)] += _positionValue;\n    positions.push(newPosition);\n  }\n\n  function retrievePosition(uint _targetPositionIndex ,uint[] memory _positionIndexes, uint _value, uint8 _rate) onlyOwner onlyWhileOpen public {\n    uint totalSettlement = 0;\n    Position storage targetPosition = positions[_targetPositionIndex];\n\n    for (uint i=0; i<_positionIndexes.length; i++) {\n      Position storage position = positions[_positionIndexes[i]];\n\n      position.value -= _value;\n      position.retrieved += _value;\n      totalVolume -= _value;\n      shareVolumes[uint(position.positionType)] -= _value;\n\n      uint settlement = SafeMath.div(_value * (100 - _rate), 100);\n\n      totalSettlement += settlement;\n      position.settlement += settlement;\n      position.holder.transfer(settlement);\n    }\n\n    totalVolume -= _value;\n    targetPosition.value -= _value;\n    targetPosition.settlement = totalSettlement;\n    targetPosition.holder.transfer(totalSettlement);\n  }\n}\n",
  "sourcePath": "/Users/larry/ExSec/contracts/marketFactory.sol",
  "compiler": {
    "name": "solc",
    "version": "0.5.3+commit.10d17f24.Emscripten.clang"
  },
  "schemaVersion": "3.0.3",
  "updatedAt": "2019-04-26T18:46:14.248Z",
  "devdoc": {
    "methods": {
      "closingTime()": {
        "return": "the crowdsale closing time."
      },
      "hasClosed()": {
        "details": "Checks whether the period in which the crowdsale is open has already elapsed.",
        "return": "Whether crowdsale period has elapsed"
      },
      "isOpen()": {
        "return": "true if the crowdsale is open, false otherwise."
      },
      "isOwner()": {
        "return": "true if `msg.sender` is the owner of the contract."
      },
      "openingTime()": {
        "return": "the crowdsale opening time."
      },
      "owner()": {
        "return": "the address of the owner."
      },
      "renounceOwnership()": {
        "details": "Allows the current owner to relinquish control of the contract. It will not be possible to call the functions with the `onlyOwner` modifier anymore."
      },
      "transferOwnership(address)": {
        "details": "Allows the current owner to transfer control of the contract to a newOwner.",
        "params": {
          "newOwner": "The address to transfer ownership to."
        }
      }
    }
  },
  "userdoc": {
    "methods": {
      "renounceOwnership()": {
        "notice": "Renouncing ownership will leave the contract without an owner, thereby removing any functionality that is only available to the owner."
      }
    }
  }
}