{
  "contractName": "Timed",
  "abi": [
    {
      "inputs": [
        {
          "name": "openingTime",
          "type": "uint256"
        },
        {
          "name": "closingTime",
          "type": "uint256"
        }
      ],
      "payable": false,
      "stateMutability": "nonpayable",
      "type": "constructor",
      "signature": "constructor"
    },
    {
      "constant": true,
      "inputs": [],
      "name": "openingTime",
      "outputs": [
        {
          "name": "",
          "type": "uint256"
        }
      ],
      "payable": false,
      "stateMutability": "view",
      "type": "function",
      "signature": "0xb7a8807c"
    },
    {
      "constant": true,
      "inputs": [],
      "name": "closingTime",
      "outputs": [
        {
          "name": "",
          "type": "uint256"
        }
      ],
      "payable": false,
      "stateMutability": "view",
      "type": "function",
      "signature": "0x4b6753bc"
    },
    {
      "constant": true,
      "inputs": [],
      "name": "isOpen",
      "outputs": [
        {
          "name": "",
          "type": "bool"
        }
      ],
      "payable": false,
      "stateMutability": "view",
      "type": "function",
      "signature": "0x47535d7b"
    },
    {
      "constant": true,
      "inputs": [],
      "name": "hasClosed",
      "outputs": [
        {
          "name": "",
          "type": "bool"
        }
      ],
      "payable": false,
      "stateMutability": "view",
      "type": "function",
      "signature": "0x1515bc2b"
    }
  ],
  "bytecode": "0x608060405234801561001057600080fd5b5060405160408061015a8339810180604052604081101561003057600080fd5b50805160209091015181811161004557600080fd5b60009190915560015560fe8061005c6000396000f3fe6080604052348015600f57600080fd5b50600436106062577c010000000000000000000000000000000000000000000000000000000060003504631515bc2b8114606757806347535d7b1460815780634b6753bc146087578063b7a8807c14609f575b600080fd5b606d60a5565b604080519115158252519081900360200190f35b606d60ad565b608d60c6565b60408051918252519081900360200190f35b608d60cc565b600154421190565b60008054421015801560c157506001544211155b905090565b60015490565b6000549056fea165627a7a72305820aa550e7d3e096c48240e11be56b73009af74c0b6d04e9bceecfe405803d302aa0029",
  "source": "pragma solidity ^0.5.2;\n\nimport \"openzeppelin-solidity/contracts/math/SafeMath.sol\";\n\n/**\n * @title TimedCrowdsale\n * @dev Crowdsale accepting contributions only within a time frame.\n */\ncontract Timed {\n  using SafeMath for uint256;\n\n  uint256 private _openingTime;\n  uint256 private _closingTime;\n\n  /**\n   * @dev Reverts if not in crowdsale time range.\n   */\n  modifier onlyWhileOpen {\n    require(isOpen());\n    _;\n  }\n\n  /**\n   * @dev Constructor, takes crowdsale opening and closing times.\n   * @param openingTime Crowdsale opening time\n   * @param closingTime Crowdsale closing time\n   */\n  constructor (uint256 openingTime, uint256 closingTime) public {\n    // solhint-disable-next-line not-rely-on-time\n//    require(openingTime >= block.timestamp);\n    require(closingTime > openingTime);\n\n    _openingTime = openingTime;\n    _closingTime = closingTime;\n  }\n\n  /**\n   * @return the crowdsale opening time.\n   */\n  function openingTime() public view returns (uint256) {\n    return _openingTime;\n  }\n\n  /**\n   * @return the crowdsale closing time.\n   */\n  function closingTime() public view returns (uint256) {\n    return _closingTime;\n  }\n\n  /**\n   * @return true if the crowdsale is open, false otherwise.\n   */\n  function isOpen() public view returns (bool) {\n    // solhint-disable-next-line not-rely-on-time\n    return block.timestamp >= _openingTime && block.timestamp <= _closingTime;\n  }\n\n  /**\n   * @dev Checks whether the period in which the crowdsale is open has already elapsed.\n   * @return Whether crowdsale period has elapsed\n   */\n  function hasClosed() public view returns (bool) {\n    // solhint-disable-next-line not-rely-on-time\n    return block.timestamp > _closingTime;\n  }\n\n  /**\n   * @dev Extend crowdsale\n   * @param newClosingTime Crowdsale closing time\n   */\n  function _extendTime(uint256 newClosingTime) internal {\n    require(!hasClosed());\n    require(newClosingTime > _closingTime);\n\n    _closingTime = newClosingTime;\n  }\n}\n",
  "sourcePath": "/Users/larry/ExSec/contracts/Timed.sol",
  "compiler": {
    "name": "solc",
    "version": "0.5.3+commit.10d17f24.Emscripten.clang"
  },
  "schemaVersion": "3.0.3",
  "updatedAt": "2019-04-27T08:47:41.104Z",
  "devdoc": {
    "details": "Crowdsale accepting contributions only within a time frame.",
    "methods": {
      "closingTime()": {
        "return": "the crowdsale closing time."
      },
      "constructor": {
        "details": "Constructor, takes crowdsale opening and closing times.",
        "params": {
          "closingTime": "Crowdsale closing time",
          "openingTime": "Crowdsale opening time"
        }
      },
      "hasClosed()": {
        "details": "Checks whether the period in which the crowdsale is open has already elapsed.",
        "return": "Whether crowdsale period has elapsed"
      },
      "isOpen()": {
        "return": "true if the crowdsale is open, false otherwise."
      },
      "openingTime()": {
        "return": "the crowdsale opening time."
      }
    },
    "title": "TimedCrowdsale"
  },
  "userdoc": {
    "methods": {}
  }
}